
uart.elf:     file format elf32-littlearm


Disassembly of section .text:

80200000 <_start>:
80200000:	e51fd000 	ldr	sp, [pc, #-0]	; 80200008 <_start+0x8>
80200004:	fa0000c2 	blx	80200314 <main>
80200008:	80100000 	andshi	r0, r0, r0

8020000c <LED_Init>:
8020000c:	b580      	push	{r7, lr}
8020000e:	b082      	sub	sp, #8
80200010:	af00      	add	r7, sp, #0
80200012:	2314      	movs	r3, #20
80200014:	f2c0 2329 	movt	r3, #553	; 0x229
80200018:	607b      	str	r3, [r7, #4]
8020001a:	687b      	ldr	r3, [r7, #4]
8020001c:	681b      	ldr	r3, [r3, #0]
8020001e:	f043 0205 	orr.w	r2, r3, #5
80200022:	687b      	ldr	r3, [r7, #4]
80200024:	601a      	str	r2, [r3, #0]
80200026:	f24c 0304 	movw	r3, #49156	; 0xc004
8020002a:	f2c0 230a 	movt	r3, #522	; 0x20a
8020002e:	607b      	str	r3, [r7, #4]
80200030:	687b      	ldr	r3, [r7, #4]
80200032:	681b      	ldr	r3, [r3, #0]
80200034:	f043 0208 	orr.w	r2, r3, #8
80200038:	687b      	ldr	r3, [r7, #4]
8020003a:	601a      	str	r2, [r3, #0]
8020003c:	2100      	movs	r1, #0
8020003e:	2000      	movs	r0, #0
80200040:	f000 f804 	bl	8020004c <LED_Control>
80200044:	bf00      	nop
80200046:	3708      	adds	r7, #8
80200048:	46bd      	mov	sp, r7
8020004a:	bd80      	pop	{r7, pc}

8020004c <LED_Control>:
8020004c:	b480      	push	{r7}
8020004e:	b085      	sub	sp, #20
80200050:	af00      	add	r7, sp, #0
80200052:	6078      	str	r0, [r7, #4]
80200054:	6039      	str	r1, [r7, #0]
80200056:	687b      	ldr	r3, [r7, #4]
80200058:	2b01      	cmp	r3, #1
8020005a:	d823      	bhi.n	802000a4 <LED_Control+0x58>
8020005c:	687b      	ldr	r3, [r7, #4]
8020005e:	2b00      	cmp	r3, #0
80200060:	d000      	beq.n	80200064 <LED_Control+0x18>
80200062:	e020      	b.n	802000a6 <LED_Control+0x5a>
80200064:	2303      	movs	r3, #3
80200066:	73fb      	strb	r3, [r7, #15]
80200068:	bf00      	nop
8020006a:	f44f 4340 	mov.w	r3, #49152	; 0xc000
8020006e:	f2c0 230a 	movt	r3, #522	; 0x20a
80200072:	60bb      	str	r3, [r7, #8]
80200074:	683b      	ldr	r3, [r7, #0]
80200076:	2b01      	cmp	r3, #1
80200078:	d10a      	bne.n	80200090 <LED_Control+0x44>
8020007a:	68bb      	ldr	r3, [r7, #8]
8020007c:	681b      	ldr	r3, [r3, #0]
8020007e:	7bfa      	ldrb	r2, [r7, #15]
80200080:	2101      	movs	r1, #1
80200082:	fa01 f202 	lsl.w	r2, r1, r2
80200086:	43d2      	mvns	r2, r2
80200088:	401a      	ands	r2, r3
8020008a:	68bb      	ldr	r3, [r7, #8]
8020008c:	601a      	str	r2, [r3, #0]
8020008e:	e00a      	b.n	802000a6 <LED_Control+0x5a>
80200090:	68bb      	ldr	r3, [r7, #8]
80200092:	681b      	ldr	r3, [r3, #0]
80200094:	7bfa      	ldrb	r2, [r7, #15]
80200096:	2101      	movs	r1, #1
80200098:	fa01 f202 	lsl.w	r2, r1, r2
8020009c:	431a      	orrs	r2, r3
8020009e:	68bb      	ldr	r3, [r7, #8]
802000a0:	601a      	str	r2, [r3, #0]
802000a2:	e000      	b.n	802000a6 <LED_Control+0x5a>
802000a4:	bf00      	nop
802000a6:	3714      	adds	r7, #20
802000a8:	46bd      	mov	sp, r7
802000aa:	f85d 7b04 	ldr.w	r7, [sp], #4
802000ae:	4770      	bx	lr

802000b0 <UART_Init>:
802000b0:	b480      	push	{r7}
802000b2:	b087      	sub	sp, #28
802000b4:	af00      	add	r7, sp, #0
802000b6:	2384      	movs	r3, #132	; 0x84
802000b8:	f2c0 230e 	movt	r3, #526	; 0x20e
802000bc:	617b      	str	r3, [r7, #20]
802000be:	2388      	movs	r3, #136	; 0x88
802000c0:	f2c0 230e 	movt	r3, #526	; 0x20e
802000c4:	613b      	str	r3, [r7, #16]
802000c6:	f240 6324 	movw	r3, #1572	; 0x624
802000ca:	f2c0 230e 	movt	r3, #526	; 0x20e
802000ce:	60fb      	str	r3, [r7, #12]
802000d0:	f244 0324 	movw	r3, #16420	; 0x4024
802000d4:	f2c0 230c 	movt	r3, #524	; 0x20c
802000d8:	60bb      	str	r3, [r7, #8]
802000da:	f244 037c 	movw	r3, #16508	; 0x407c
802000de:	f2c0 230c 	movt	r3, #524	; 0x20c
802000e2:	607b      	str	r3, [r7, #4]
802000e4:	68bb      	ldr	r3, [r7, #8]
802000e6:	681b      	ldr	r3, [r3, #0]
802000e8:	f023 027f 	bic.w	r2, r3, #127	; 0x7f
802000ec:	68bb      	ldr	r3, [r7, #8]
802000ee:	601a      	str	r2, [r3, #0]
802000f0:	687b      	ldr	r3, [r7, #4]
802000f2:	681b      	ldr	r3, [r3, #0]
802000f4:	f043 7240 	orr.w	r2, r3, #50331648	; 0x3000000
802000f8:	687b      	ldr	r3, [r7, #4]
802000fa:	601a      	str	r2, [r3, #0]
802000fc:	697b      	ldr	r3, [r7, #20]
802000fe:	681b      	ldr	r3, [r3, #0]
80200100:	f023 020f 	bic.w	r2, r3, #15
80200104:	697b      	ldr	r3, [r7, #20]
80200106:	601a      	str	r2, [r3, #0]
80200108:	693b      	ldr	r3, [r7, #16]
8020010a:	681b      	ldr	r3, [r3, #0]
8020010c:	f023 020f 	bic.w	r2, r3, #15
80200110:	693b      	ldr	r3, [r7, #16]
80200112:	601a      	str	r2, [r3, #0]
80200114:	68fb      	ldr	r3, [r7, #12]
80200116:	681b      	ldr	r3, [r3, #0]
80200118:	f043 0203 	orr.w	r2, r3, #3
8020011c:	68fb      	ldr	r3, [r7, #12]
8020011e:	601a      	str	r2, [r3, #0]
80200120:	2300      	movs	r3, #0
80200122:	f2c0 2302 	movt	r3, #514	; 0x202
80200126:	2200      	movs	r2, #0
80200128:	f2c0 2202 	movt	r2, #514	; 0x202
8020012c:	f8d2 2090 	ldr.w	r2, [r2, #144]	; 0x90
80200130:	f442 7220 	orr.w	r2, r2, #640	; 0x280
80200134:	f8c3 2090 	str.w	r2, [r3, #144]	; 0x90
80200138:	2300      	movs	r3, #0
8020013a:	f2c0 2302 	movt	r3, #514	; 0x202
8020013e:	220f      	movs	r2, #15
80200140:	f8c3 20a4 	str.w	r2, [r3, #164]	; 0xa4
80200144:	2300      	movs	r3, #0
80200146:	f2c0 2302 	movt	r3, #514	; 0x202
8020014a:	f240 22b5 	movw	r2, #693	; 0x2b5
8020014e:	f8c3 20a8 	str.w	r2, [r3, #168]	; 0xa8
80200152:	2300      	movs	r3, #0
80200154:	f2c0 2302 	movt	r3, #514	; 0x202
80200158:	2200      	movs	r2, #0
8020015a:	f2c0 2202 	movt	r2, #514	; 0x202
8020015e:	f8d2 2084 	ldr.w	r2, [r2, #132]	; 0x84
80200162:	f042 0226 	orr.w	r2, r2, #38	; 0x26
80200166:	f8c3 2084 	str.w	r2, [r3, #132]	; 0x84
8020016a:	2300      	movs	r3, #0
8020016c:	f2c0 2302 	movt	r3, #514	; 0x202
80200170:	2200      	movs	r2, #0
80200172:	f2c0 2202 	movt	r2, #514	; 0x202
80200176:	f8d2 2088 	ldr.w	r2, [r2, #136]	; 0x88
8020017a:	f042 0204 	orr.w	r2, r2, #4
8020017e:	f8c3 2088 	str.w	r2, [r3, #136]	; 0x88
80200182:	2300      	movs	r3, #0
80200184:	f2c0 2302 	movt	r3, #514	; 0x202
80200188:	2200      	movs	r2, #0
8020018a:	f2c0 2202 	movt	r2, #514	; 0x202
8020018e:	f8d2 2080 	ldr.w	r2, [r2, #128]	; 0x80
80200192:	f042 0201 	orr.w	r2, r2, #1
80200196:	f8c3 2080 	str.w	r2, [r3, #128]	; 0x80
8020019a:	bf00      	nop
8020019c:	371c      	adds	r7, #28
8020019e:	46bd      	mov	sp, r7
802001a0:	f85d 7b04 	ldr.w	r7, [sp], #4
802001a4:	4770      	bx	lr

802001a6 <UART_SendByte>:
802001a6:	b480      	push	{r7}
802001a8:	b083      	sub	sp, #12
802001aa:	af00      	add	r7, sp, #0
802001ac:	6078      	str	r0, [r7, #4]
802001ae:	460b      	mov	r3, r1
802001b0:	70fb      	strb	r3, [r7, #3]
802001b2:	bf00      	nop
802001b4:	687b      	ldr	r3, [r7, #4]
802001b6:	f8d3 3098 	ldr.w	r3, [r3, #152]	; 0x98
802001ba:	78fa      	ldrb	r2, [r7, #3]
802001bc:	687b      	ldr	r3, [r7, #4]
802001be:	641a      	str	r2, [r3, #64]	; 0x40
802001c0:	bf00      	nop
802001c2:	370c      	adds	r7, #12
802001c4:	46bd      	mov	sp, r7
802001c6:	f85d 7b04 	ldr.w	r7, [sp], #4
802001ca:	4770      	bx	lr

802001cc <UART_GetByte>:
802001cc:	b480      	push	{r7}
802001ce:	b083      	sub	sp, #12
802001d0:	af00      	add	r7, sp, #0
802001d2:	6078      	str	r0, [r7, #4]
802001d4:	bf00      	nop
802001d6:	687b      	ldr	r3, [r7, #4]
802001d8:	f8d3 3098 	ldr.w	r3, [r3, #152]	; 0x98
802001dc:	f003 0301 	and.w	r3, r3, #1
802001e0:	2b00      	cmp	r3, #0
802001e2:	d0f8      	beq.n	802001d6 <UART_GetByte+0xa>
802001e4:	2300      	movs	r3, #0
802001e6:	f2c0 2302 	movt	r3, #514	; 0x202
802001ea:	681b      	ldr	r3, [r3, #0]
802001ec:	4618      	mov	r0, r3
802001ee:	370c      	adds	r7, #12
802001f0:	46bd      	mov	sp, r7
802001f2:	f85d 7b04 	ldr.w	r7, [sp], #4
802001f6:	4770      	bx	lr

802001f8 <puts>:
802001f8:	b580      	push	{r7, lr}
802001fa:	b082      	sub	sp, #8
802001fc:	af00      	add	r7, sp, #0
802001fe:	6078      	str	r0, [r7, #4]
80200200:	e00a      	b.n	80200218 <puts+0x20>
80200202:	687b      	ldr	r3, [r7, #4]
80200204:	781b      	ldrb	r3, [r3, #0]
80200206:	4619      	mov	r1, r3
80200208:	2000      	movs	r0, #0
8020020a:	f2c0 2002 	movt	r0, #514	; 0x202
8020020e:	f7ff ffca 	bl	802001a6 <UART_SendByte>
80200212:	687b      	ldr	r3, [r7, #4]
80200214:	3301      	adds	r3, #1
80200216:	607b      	str	r3, [r7, #4]
80200218:	687b      	ldr	r3, [r7, #4]
8020021a:	781b      	ldrb	r3, [r3, #0]
8020021c:	2b00      	cmp	r3, #0
8020021e:	d1f0      	bne.n	80200202 <puts+0xa>
80200220:	2300      	movs	r3, #0
80200222:	4618      	mov	r0, r3
80200224:	3708      	adds	r7, #8
80200226:	46bd      	mov	sp, r7
80200228:	bd80      	pop	{r7, pc}

8020022a <puthex>:
8020022a:	b580      	push	{r7, lr}
8020022c:	b084      	sub	sp, #16
8020022e:	af00      	add	r7, sp, #0
80200230:	6078      	str	r0, [r7, #4]
80200232:	2130      	movs	r1, #48	; 0x30
80200234:	2000      	movs	r0, #0
80200236:	f2c0 2002 	movt	r0, #514	; 0x202
8020023a:	f7ff ffb4 	bl	802001a6 <UART_SendByte>
8020023e:	2178      	movs	r1, #120	; 0x78
80200240:	2000      	movs	r0, #0
80200242:	f2c0 2002 	movt	r0, #514	; 0x202
80200246:	f7ff ffae 	bl	802001a6 <UART_SendByte>
8020024a:	2307      	movs	r3, #7
8020024c:	60fb      	str	r3, [r7, #12]
8020024e:	e025      	b.n	8020029c <puthex+0x72>
80200250:	68fb      	ldr	r3, [r7, #12]
80200252:	009b      	lsls	r3, r3, #2
80200254:	687a      	ldr	r2, [r7, #4]
80200256:	fa22 f303 	lsr.w	r3, r2, r3
8020025a:	f003 030f 	and.w	r3, r3, #15
8020025e:	60bb      	str	r3, [r7, #8]
80200260:	68bb      	ldr	r3, [r7, #8]
80200262:	2b00      	cmp	r3, #0
80200264:	db0d      	blt.n	80200282 <puthex+0x58>
80200266:	68bb      	ldr	r3, [r7, #8]
80200268:	2b09      	cmp	r3, #9
8020026a:	dc0a      	bgt.n	80200282 <puthex+0x58>
8020026c:	68bb      	ldr	r3, [r7, #8]
8020026e:	b2db      	uxtb	r3, r3
80200270:	3330      	adds	r3, #48	; 0x30
80200272:	b2db      	uxtb	r3, r3
80200274:	4619      	mov	r1, r3
80200276:	2000      	movs	r0, #0
80200278:	f2c0 2002 	movt	r0, #514	; 0x202
8020027c:	f7ff ff93 	bl	802001a6 <UART_SendByte>
80200280:	e009      	b.n	80200296 <puthex+0x6c>
80200282:	68bb      	ldr	r3, [r7, #8]
80200284:	b2db      	uxtb	r3, r3
80200286:	3337      	adds	r3, #55	; 0x37
80200288:	b2db      	uxtb	r3, r3
8020028a:	4619      	mov	r1, r3
8020028c:	2000      	movs	r0, #0
8020028e:	f2c0 2002 	movt	r0, #514	; 0x202
80200292:	f7ff ff88 	bl	802001a6 <UART_SendByte>
80200296:	68fb      	ldr	r3, [r7, #12]
80200298:	3b01      	subs	r3, #1
8020029a:	60fb      	str	r3, [r7, #12]
8020029c:	68fb      	ldr	r3, [r7, #12]
8020029e:	2b00      	cmp	r3, #0
802002a0:	dad6      	bge.n	80200250 <puthex+0x26>
802002a2:	bf00      	nop
802002a4:	3710      	adds	r7, #16
802002a6:	46bd      	mov	sp, r7
802002a8:	bd80      	pop	{r7, pc}

802002aa <put_s_hex>:
802002aa:	b580      	push	{r7, lr}
802002ac:	b082      	sub	sp, #8
802002ae:	af00      	add	r7, sp, #0
802002b0:	6078      	str	r0, [r7, #4]
802002b2:	6039      	str	r1, [r7, #0]
802002b4:	6878      	ldr	r0, [r7, #4]
802002b6:	f7ff ff9f 	bl	802001f8 <puts>
802002ba:	6838      	ldr	r0, [r7, #0]
802002bc:	f7ff ffb5 	bl	8020022a <puthex>
802002c0:	f240 3090 	movw	r0, #912	; 0x390
802002c4:	f2c8 0020 	movt	r0, #32800	; 0x8020
802002c8:	f7ff ff96 	bl	802001f8 <puts>
802002cc:	bf00      	nop
802002ce:	3708      	adds	r7, #8
802002d0:	46bd      	mov	sp, r7
802002d2:	bd80      	pop	{r7, pc}

802002d4 <memcpy>:
802002d4:	b480      	push	{r7}
802002d6:	b087      	sub	sp, #28
802002d8:	af00      	add	r7, sp, #0
802002da:	60f8      	str	r0, [r7, #12]
802002dc:	60b9      	str	r1, [r7, #8]
802002de:	607a      	str	r2, [r7, #4]
802002e0:	68fb      	ldr	r3, [r7, #12]
802002e2:	617b      	str	r3, [r7, #20]
802002e4:	68bb      	ldr	r3, [r7, #8]
802002e6:	613b      	str	r3, [r7, #16]
802002e8:	e009      	b.n	802002fe <memcpy+0x2a>
802002ea:	693b      	ldr	r3, [r7, #16]
802002ec:	781a      	ldrb	r2, [r3, #0]
802002ee:	697b      	ldr	r3, [r7, #20]
802002f0:	701a      	strb	r2, [r3, #0]
802002f2:	693b      	ldr	r3, [r7, #16]
802002f4:	3301      	adds	r3, #1
802002f6:	613b      	str	r3, [r7, #16]
802002f8:	697b      	ldr	r3, [r7, #20]
802002fa:	3301      	adds	r3, #1
802002fc:	617b      	str	r3, [r7, #20]
802002fe:	687b      	ldr	r3, [r7, #4]
80200300:	1e5a      	subs	r2, r3, #1
80200302:	607a      	str	r2, [r7, #4]
80200304:	2b00      	cmp	r3, #0
80200306:	d1f0      	bne.n	802002ea <memcpy+0x16>
80200308:	bf00      	nop
8020030a:	371c      	adds	r7, #28
8020030c:	46bd      	mov	sp, r7
8020030e:	f85d 7b04 	ldr.w	r7, [sp], #4
80200312:	4770      	bx	lr

80200314 <main>:
80200314:	b580      	push	{r7, lr}
80200316:	af00      	add	r7, sp, #0
80200318:	f7ff fe78 	bl	8020000c <LED_Init>
8020031c:	f7ff fec8 	bl	802000b0 <UART_Init>
80200320:	f240 3094 	movw	r0, #916	; 0x394
80200324:	f2c8 0020 	movt	r0, #32800	; 0x8020
80200328:	f7ff ff7f 	bl	8020022a <puthex>
8020032c:	210d      	movs	r1, #13
8020032e:	2000      	movs	r0, #0
80200330:	f2c0 2002 	movt	r0, #514	; 0x202
80200334:	f7ff ff37 	bl	802001a6 <UART_SendByte>
80200338:	210a      	movs	r1, #10
8020033a:	2000      	movs	r0, #0
8020033c:	f2c0 2002 	movt	r0, #514	; 0x202
80200340:	f7ff ff31 	bl	802001a6 <UART_SendByte>
80200344:	f240 3093 	movw	r0, #915	; 0x393
80200348:	f2c8 0020 	movt	r0, #32800	; 0x8020
8020034c:	f7ff ff6d 	bl	8020022a <puthex>
80200350:	210d      	movs	r1, #13
80200352:	2000      	movs	r0, #0
80200354:	f2c0 2002 	movt	r0, #514	; 0x202
80200358:	f7ff ff25 	bl	802001a6 <UART_SendByte>
8020035c:	210a      	movs	r1, #10
8020035e:	2000      	movs	r0, #0
80200360:	f2c0 2002 	movt	r0, #514	; 0x202
80200364:	f7ff ff1f 	bl	802001a6 <UART_SendByte>
80200368:	f240 3394 	movw	r3, #916	; 0x394
8020036c:	f2c8 0320 	movt	r3, #32800	; 0x8020
80200370:	781b      	ldrb	r3, [r3, #0]
80200372:	4619      	mov	r1, r3
80200374:	2000      	movs	r0, #0
80200376:	f2c0 2002 	movt	r0, #514	; 0x202
8020037a:	f7ff ff14 	bl	802001a6 <UART_SendByte>
8020037e:	2342      	movs	r3, #66	; 0x42
80200380:	4619      	mov	r1, r3
80200382:	2000      	movs	r0, #0
80200384:	f2c0 2002 	movt	r0, #514	; 0x202
80200388:	f7ff ff0d 	bl	802001a6 <UART_SendByte>
8020038c:	e7fe      	b.n	8020038c <main+0x78>

Disassembly of section .rodata:

80200390 <__data_start>:
80200390:	42000a0d 	andmi	r0, r0, #53248	; 0xd000

80200393 <b>:
80200393:	Address 0x80200393 is out of bounds.


Disassembly of section .data:

80200394 <a>:
80200394:	Address 0x80200394 is out of bounds.


