
key.elf:     file format elf32-littlearm


Disassembly of section .text:

80100000 <_start>:
80100000:	e51fd000 	ldr	sp, [pc, #-0]	; 80100008 <_start+0x8>
80100004:	fa000060 	blx	8010018c <main>
80100008:	80100000 	andshi	r0, r0, r0

8010000c <LED_Init>:
8010000c:	b480      	push	{r7}
8010000e:	b083      	sub	sp, #12
80100010:	af00      	add	r7, sp, #0
80100012:	2314      	movs	r3, #20
80100014:	f2c0 2329 	movt	r3, #553	; 0x229
80100018:	607b      	str	r3, [r7, #4]
8010001a:	687b      	ldr	r3, [r7, #4]
8010001c:	681b      	ldr	r3, [r3, #0]
8010001e:	f043 0205 	orr.w	r2, r3, #5
80100022:	687b      	ldr	r3, [r7, #4]
80100024:	601a      	str	r2, [r3, #0]
80100026:	f24c 0304 	movw	r3, #49156	; 0xc004
8010002a:	f2c0 230a 	movt	r3, #522	; 0x20a
8010002e:	607b      	str	r3, [r7, #4]
80100030:	687b      	ldr	r3, [r7, #4]
80100032:	681b      	ldr	r3, [r3, #0]
80100034:	f043 0208 	orr.w	r2, r3, #8
80100038:	687b      	ldr	r3, [r7, #4]
8010003a:	601a      	str	r2, [r3, #0]
8010003c:	bf00      	nop
8010003e:	370c      	adds	r7, #12
80100040:	46bd      	mov	sp, r7
80100042:	f85d 7b04 	ldr.w	r7, [sp], #4
80100046:	4770      	bx	lr

80100048 <LED_Control>:
80100048:	b480      	push	{r7}
8010004a:	b085      	sub	sp, #20
8010004c:	af00      	add	r7, sp, #0
8010004e:	6078      	str	r0, [r7, #4]
80100050:	6039      	str	r1, [r7, #0]
80100052:	687b      	ldr	r3, [r7, #4]
80100054:	2b01      	cmp	r3, #1
80100056:	d823      	bhi.n	801000a0 <LED_Control+0x58>
80100058:	687b      	ldr	r3, [r7, #4]
8010005a:	2b00      	cmp	r3, #0
8010005c:	d000      	beq.n	80100060 <LED_Control+0x18>
8010005e:	e020      	b.n	801000a2 <LED_Control+0x5a>
80100060:	2303      	movs	r3, #3
80100062:	73fb      	strb	r3, [r7, #15]
80100064:	bf00      	nop
80100066:	f44f 4340 	mov.w	r3, #49152	; 0xc000
8010006a:	f2c0 230a 	movt	r3, #522	; 0x20a
8010006e:	60bb      	str	r3, [r7, #8]
80100070:	683b      	ldr	r3, [r7, #0]
80100072:	2b01      	cmp	r3, #1
80100074:	d10a      	bne.n	8010008c <LED_Control+0x44>
80100076:	68bb      	ldr	r3, [r7, #8]
80100078:	681b      	ldr	r3, [r3, #0]
8010007a:	7bfa      	ldrb	r2, [r7, #15]
8010007c:	2101      	movs	r1, #1
8010007e:	fa01 f202 	lsl.w	r2, r1, r2
80100082:	43d2      	mvns	r2, r2
80100084:	401a      	ands	r2, r3
80100086:	68bb      	ldr	r3, [r7, #8]
80100088:	601a      	str	r2, [r3, #0]
8010008a:	e00a      	b.n	801000a2 <LED_Control+0x5a>
8010008c:	68bb      	ldr	r3, [r7, #8]
8010008e:	681b      	ldr	r3, [r3, #0]
80100090:	7bfa      	ldrb	r2, [r7, #15]
80100092:	2101      	movs	r1, #1
80100094:	fa01 f202 	lsl.w	r2, r1, r2
80100098:	431a      	orrs	r2, r3
8010009a:	68bb      	ldr	r3, [r7, #8]
8010009c:	601a      	str	r2, [r3, #0]
8010009e:	e000      	b.n	801000a2 <LED_Control+0x5a>
801000a0:	bf00      	nop
801000a2:	3714      	adds	r7, #20
801000a4:	46bd      	mov	sp, r7
801000a6:	f85d 7b04 	ldr.w	r7, [sp], #4
801000aa:	4770      	bx	lr

801000ac <Key_Init>:
801000ac:	b480      	push	{r7}
801000ae:	b083      	sub	sp, #12
801000b0:	af00      	add	r7, sp, #0
801000b2:	f244 0374 	movw	r3, #16500	; 0x4074
801000b6:	f2c0 230c 	movt	r3, #524	; 0x20c
801000ba:	607b      	str	r3, [r7, #4]
801000bc:	687b      	ldr	r3, [r7, #4]
801000be:	681b      	ldr	r3, [r3, #0]
801000c0:	f443 5240 	orr.w	r2, r3, #12288	; 0x3000
801000c4:	687b      	ldr	r3, [r7, #4]
801000c6:	601a      	str	r2, [r3, #0]
801000c8:	f44f 73d8 	mov.w	r3, #432	; 0x1b0
801000cc:	f2c0 230e 	movt	r3, #526	; 0x20e
801000d0:	607b      	str	r3, [r7, #4]
801000d2:	687b      	ldr	r3, [r7, #4]
801000d4:	681b      	ldr	r3, [r3, #0]
801000d6:	f043 0205 	orr.w	r2, r3, #5
801000da:	687b      	ldr	r3, [r7, #4]
801000dc:	601a      	str	r2, [r3, #0]
801000de:	230c      	movs	r3, #12
801000e0:	f2c0 2329 	movt	r3, #553	; 0x229
801000e4:	607b      	str	r3, [r7, #4]
801000e6:	687b      	ldr	r3, [r7, #4]
801000e8:	681b      	ldr	r3, [r3, #0]
801000ea:	f043 0205 	orr.w	r2, r3, #5
801000ee:	687b      	ldr	r3, [r7, #4]
801000f0:	601a      	str	r2, [r3, #0]
801000f2:	f248 0304 	movw	r3, #32772	; 0x8004
801000f6:	f2c0 230a 	movt	r3, #522	; 0x20a
801000fa:	607b      	str	r3, [r7, #4]
801000fc:	687b      	ldr	r3, [r7, #4]
801000fe:	681b      	ldr	r3, [r3, #0]
80100100:	f423 4280 	bic.w	r2, r3, #16384	; 0x4000
80100104:	687b      	ldr	r3, [r7, #4]
80100106:	601a      	str	r2, [r3, #0]
80100108:	f24c 0304 	movw	r3, #49156	; 0xc004
8010010c:	f2c0 230a 	movt	r3, #522	; 0x20a
80100110:	607b      	str	r3, [r7, #4]
80100112:	687b      	ldr	r3, [r7, #4]
80100114:	681b      	ldr	r3, [r3, #0]
80100116:	f023 0202 	bic.w	r2, r3, #2
8010011a:	687b      	ldr	r3, [r7, #4]
8010011c:	601a      	str	r2, [r3, #0]
8010011e:	bf00      	nop
80100120:	370c      	adds	r7, #12
80100122:	46bd      	mov	sp, r7
80100124:	f85d 7b04 	ldr.w	r7, [sp], #4
80100128:	4770      	bx	lr

8010012a <Key_Read>:
8010012a:	b480      	push	{r7}
8010012c:	b087      	sub	sp, #28
8010012e:	af00      	add	r7, sp, #0
80100130:	6078      	str	r0, [r7, #4]
80100132:	2300      	movs	r3, #0
80100134:	74fb      	strb	r3, [r7, #19]
80100136:	687b      	ldr	r3, [r7, #4]
80100138:	2b00      	cmp	r3, #0
8010013a:	d002      	beq.n	80100142 <Key_Read+0x18>
8010013c:	2b01      	cmp	r3, #1
8010013e:	d008      	beq.n	80100152 <Key_Read+0x28>
80100140:	e00f      	b.n	80100162 <Key_Read+0x38>
80100142:	f44f 4300 	mov.w	r3, #32768	; 0x8000
80100146:	f2c0 230a 	movt	r3, #522	; 0x20a
8010014a:	617b      	str	r3, [r7, #20]
8010014c:	230e      	movs	r3, #14
8010014e:	74fb      	strb	r3, [r7, #19]
80100150:	e007      	b.n	80100162 <Key_Read+0x38>
80100152:	f44f 4340 	mov.w	r3, #49152	; 0xc000
80100156:	f2c0 230a 	movt	r3, #522	; 0x20a
8010015a:	617b      	str	r3, [r7, #20]
8010015c:	2301      	movs	r3, #1
8010015e:	74fb      	strb	r3, [r7, #19]
80100160:	bf00      	nop
80100162:	697b      	ldr	r3, [r7, #20]
80100164:	681b      	ldr	r3, [r3, #0]
80100166:	7cfa      	ldrb	r2, [r7, #19]
80100168:	2101      	movs	r1, #1
8010016a:	fa01 f202 	lsl.w	r2, r1, r2
8010016e:	4013      	ands	r3, r2
80100170:	2b00      	cmp	r3, #0
80100172:	d102      	bne.n	8010017a <Key_Read+0x50>
80100174:	2300      	movs	r3, #0
80100176:	60fb      	str	r3, [r7, #12]
80100178:	e001      	b.n	8010017e <Key_Read+0x54>
8010017a:	2301      	movs	r3, #1
8010017c:	60fb      	str	r3, [r7, #12]
8010017e:	68fb      	ldr	r3, [r7, #12]
80100180:	4618      	mov	r0, r3
80100182:	371c      	adds	r7, #28
80100184:	46bd      	mov	sp, r7
80100186:	f85d 7b04 	ldr.w	r7, [sp], #4
8010018a:	4770      	bx	lr

8010018c <main>:
8010018c:	b580      	push	{r7, lr}
8010018e:	af00      	add	r7, sp, #0
80100190:	f7ff ff3c 	bl	8010000c <LED_Init>
80100194:	f7ff ff8a 	bl	801000ac <Key_Init>
80100198:	2000      	movs	r0, #0
8010019a:	f7ff ffc6 	bl	8010012a <Key_Read>
8010019e:	4603      	mov	r3, r0
801001a0:	2b00      	cmp	r3, #0
801001a2:	d005      	beq.n	801001b0 <main+0x24>
801001a4:	2001      	movs	r0, #1
801001a6:	f7ff ffc0 	bl	8010012a <Key_Read>
801001aa:	4603      	mov	r3, r0
801001ac:	2b00      	cmp	r3, #0
801001ae:	d104      	bne.n	801001ba <main+0x2e>
801001b0:	2101      	movs	r1, #1
801001b2:	2000      	movs	r0, #0
801001b4:	f7ff ff48 	bl	80100048 <LED_Control>
801001b8:	e003      	b.n	801001c2 <main+0x36>
801001ba:	2100      	movs	r1, #0
801001bc:	2000      	movs	r0, #0
801001be:	f7ff ff43 	bl	80100048 <LED_Control>
801001c2:	e7e9      	b.n	80100198 <main+0xc>

