
led.elf:     file format elf32-littlearm


Disassembly of section .text:

80100000 <_start>:
80100000:	e51fd000 	ldr	sp, [pc, #-0]	; 80100008 <_start+0x8>
80100004:	fb000030 	blx	801000ce <main>
80100008:	80100000 	andshi	r0, r0, r0

8010000c <LED_Init>:
8010000c:	b480      	push	{r7}
8010000e:	b083      	sub	sp, #12
80100010:	af00      	add	r7, sp, #0
80100012:	2314      	movs	r3, #20
80100014:	f2c0 2329 	movt	r3, #553	; 0x229
80100018:	607b      	str	r3, [r7, #4]
8010001a:	687b      	ldr	r3, [r7, #4]
8010001c:	681b      	ldr	r3, [r3, #0]
8010001e:	f043 0205 	orr.w	r2, r3, #5
80100022:	687b      	ldr	r3, [r7, #4]
80100024:	601a      	str	r2, [r3, #0]
80100026:	f24c 0304 	movw	r3, #49156	; 0xc004
8010002a:	f2c0 230a 	movt	r3, #522	; 0x20a
8010002e:	607b      	str	r3, [r7, #4]
80100030:	687b      	ldr	r3, [r7, #4]
80100032:	681b      	ldr	r3, [r3, #0]
80100034:	f043 0208 	orr.w	r2, r3, #8
80100038:	687b      	ldr	r3, [r7, #4]
8010003a:	601a      	str	r2, [r3, #0]
8010003c:	bf00      	nop
8010003e:	370c      	adds	r7, #12
80100040:	46bd      	mov	sp, r7
80100042:	f85d 7b04 	ldr.w	r7, [sp], #4
80100046:	4770      	bx	lr

80100048 <LED_Control>:
80100048:	b480      	push	{r7}
8010004a:	b085      	sub	sp, #20
8010004c:	af00      	add	r7, sp, #0
8010004e:	6078      	str	r0, [r7, #4]
80100050:	6039      	str	r1, [r7, #0]
80100052:	687b      	ldr	r3, [r7, #4]
80100054:	2b01      	cmp	r3, #1
80100056:	d823      	bhi.n	801000a0 <LED_Control+0x58>
80100058:	687b      	ldr	r3, [r7, #4]
8010005a:	2b00      	cmp	r3, #0
8010005c:	d000      	beq.n	80100060 <LED_Control+0x18>
8010005e:	e020      	b.n	801000a2 <LED_Control+0x5a>
80100060:	2303      	movs	r3, #3
80100062:	73fb      	strb	r3, [r7, #15]
80100064:	bf00      	nop
80100066:	f44f 4340 	mov.w	r3, #49152	; 0xc000
8010006a:	f2c0 230a 	movt	r3, #522	; 0x20a
8010006e:	60bb      	str	r3, [r7, #8]
80100070:	683b      	ldr	r3, [r7, #0]
80100072:	2b01      	cmp	r3, #1
80100074:	d10a      	bne.n	8010008c <LED_Control+0x44>
80100076:	68bb      	ldr	r3, [r7, #8]
80100078:	681b      	ldr	r3, [r3, #0]
8010007a:	7bfa      	ldrb	r2, [r7, #15]
8010007c:	2101      	movs	r1, #1
8010007e:	fa01 f202 	lsl.w	r2, r1, r2
80100082:	43d2      	mvns	r2, r2
80100084:	401a      	ands	r2, r3
80100086:	68bb      	ldr	r3, [r7, #8]
80100088:	601a      	str	r2, [r3, #0]
8010008a:	e00a      	b.n	801000a2 <LED_Control+0x5a>
8010008c:	68bb      	ldr	r3, [r7, #8]
8010008e:	681b      	ldr	r3, [r3, #0]
80100090:	7bfa      	ldrb	r2, [r7, #15]
80100092:	2101      	movs	r1, #1
80100094:	fa01 f202 	lsl.w	r2, r1, r2
80100098:	431a      	orrs	r2, r3
8010009a:	68bb      	ldr	r3, [r7, #8]
8010009c:	601a      	str	r2, [r3, #0]
8010009e:	e000      	b.n	801000a2 <LED_Control+0x5a>
801000a0:	bf00      	nop
801000a2:	3714      	adds	r7, #20
801000a4:	46bd      	mov	sp, r7
801000a6:	f85d 7b04 	ldr.w	r7, [sp], #4
801000aa:	4770      	bx	lr

801000ac <delay>:
801000ac:	b480      	push	{r7}
801000ae:	b083      	sub	sp, #12
801000b0:	af00      	add	r7, sp, #0
801000b2:	6078      	str	r0, [r7, #4]
801000b4:	e002      	b.n	801000bc <delay+0x10>
801000b6:	687b      	ldr	r3, [r7, #4]
801000b8:	3b01      	subs	r3, #1
801000ba:	607b      	str	r3, [r7, #4]
801000bc:	687b      	ldr	r3, [r7, #4]
801000be:	2b00      	cmp	r3, #0
801000c0:	d1f9      	bne.n	801000b6 <delay+0xa>
801000c2:	bf00      	nop
801000c4:	370c      	adds	r7, #12
801000c6:	46bd      	mov	sp, r7
801000c8:	f85d 7b04 	ldr.w	r7, [sp], #4
801000cc:	4770      	bx	lr

801000ce <main>:
801000ce:	b580      	push	{r7, lr}
801000d0:	af00      	add	r7, sp, #0
801000d2:	f7ff ff9b 	bl	8010000c <LED_Init>
801000d6:	2101      	movs	r1, #1
801000d8:	2000      	movs	r0, #0
801000da:	f7ff ffb5 	bl	80100048 <LED_Control>
801000de:	f244 2040 	movw	r0, #16960	; 0x4240
801000e2:	f2c0 000f 	movt	r0, #15
801000e6:	f7ff ffe1 	bl	801000ac <delay>
801000ea:	2100      	movs	r1, #0
801000ec:	2000      	movs	r0, #0
801000ee:	f7ff ffab 	bl	80100048 <LED_Control>
801000f2:	f244 2040 	movw	r0, #16960	; 0x4240
801000f6:	f2c0 000f 	movt	r0, #15
801000fa:	f7ff ffd7 	bl	801000ac <delay>
801000fe:	e7ea      	b.n	801000d6 <main+0x8>

