
uart.elf:     file format elf32-littlearm


Disassembly of section .text:

80100000 <_start>:
80100000:	e51fd000 	ldr	sp, [pc, #-0]	; 80100008 <_start+0x8>
80100004:	fa00007b 	blx	801001f8 <main>
80100008:	80100000 	andshi	r0, r0, r0

8010000c <LED_Init>:
8010000c:	b580      	push	{r7, lr}
8010000e:	b082      	sub	sp, #8
80100010:	af00      	add	r7, sp, #0
80100012:	2314      	movs	r3, #20
80100014:	f2c0 2329 	movt	r3, #553	; 0x229
80100018:	607b      	str	r3, [r7, #4]
8010001a:	687b      	ldr	r3, [r7, #4]
8010001c:	681b      	ldr	r3, [r3, #0]
8010001e:	f043 0205 	orr.w	r2, r3, #5
80100022:	687b      	ldr	r3, [r7, #4]
80100024:	601a      	str	r2, [r3, #0]
80100026:	f24c 0304 	movw	r3, #49156	; 0xc004
8010002a:	f2c0 230a 	movt	r3, #522	; 0x20a
8010002e:	607b      	str	r3, [r7, #4]
80100030:	687b      	ldr	r3, [r7, #4]
80100032:	681b      	ldr	r3, [r3, #0]
80100034:	f043 0208 	orr.w	r2, r3, #8
80100038:	687b      	ldr	r3, [r7, #4]
8010003a:	601a      	str	r2, [r3, #0]
8010003c:	2100      	movs	r1, #0
8010003e:	2000      	movs	r0, #0
80100040:	f000 f804 	bl	8010004c <LED_Control>
80100044:	bf00      	nop
80100046:	3708      	adds	r7, #8
80100048:	46bd      	mov	sp, r7
8010004a:	bd80      	pop	{r7, pc}

8010004c <LED_Control>:
8010004c:	b480      	push	{r7}
8010004e:	b085      	sub	sp, #20
80100050:	af00      	add	r7, sp, #0
80100052:	6078      	str	r0, [r7, #4]
80100054:	6039      	str	r1, [r7, #0]
80100056:	687b      	ldr	r3, [r7, #4]
80100058:	2b01      	cmp	r3, #1
8010005a:	d823      	bhi.n	801000a4 <LED_Control+0x58>
8010005c:	687b      	ldr	r3, [r7, #4]
8010005e:	2b00      	cmp	r3, #0
80100060:	d000      	beq.n	80100064 <LED_Control+0x18>
80100062:	e020      	b.n	801000a6 <LED_Control+0x5a>
80100064:	2303      	movs	r3, #3
80100066:	73fb      	strb	r3, [r7, #15]
80100068:	bf00      	nop
8010006a:	f44f 4340 	mov.w	r3, #49152	; 0xc000
8010006e:	f2c0 230a 	movt	r3, #522	; 0x20a
80100072:	60bb      	str	r3, [r7, #8]
80100074:	683b      	ldr	r3, [r7, #0]
80100076:	2b01      	cmp	r3, #1
80100078:	d10a      	bne.n	80100090 <LED_Control+0x44>
8010007a:	68bb      	ldr	r3, [r7, #8]
8010007c:	681b      	ldr	r3, [r3, #0]
8010007e:	7bfa      	ldrb	r2, [r7, #15]
80100080:	2101      	movs	r1, #1
80100082:	fa01 f202 	lsl.w	r2, r1, r2
80100086:	43d2      	mvns	r2, r2
80100088:	401a      	ands	r2, r3
8010008a:	68bb      	ldr	r3, [r7, #8]
8010008c:	601a      	str	r2, [r3, #0]
8010008e:	e00a      	b.n	801000a6 <LED_Control+0x5a>
80100090:	68bb      	ldr	r3, [r7, #8]
80100092:	681b      	ldr	r3, [r3, #0]
80100094:	7bfa      	ldrb	r2, [r7, #15]
80100096:	2101      	movs	r1, #1
80100098:	fa01 f202 	lsl.w	r2, r1, r2
8010009c:	431a      	orrs	r2, r3
8010009e:	68bb      	ldr	r3, [r7, #8]
801000a0:	601a      	str	r2, [r3, #0]
801000a2:	e000      	b.n	801000a6 <LED_Control+0x5a>
801000a4:	bf00      	nop
801000a6:	3714      	adds	r7, #20
801000a8:	46bd      	mov	sp, r7
801000aa:	f85d 7b04 	ldr.w	r7, [sp], #4
801000ae:	4770      	bx	lr

801000b0 <UART_Init>:
801000b0:	b480      	push	{r7}
801000b2:	b087      	sub	sp, #28
801000b4:	af00      	add	r7, sp, #0
801000b6:	2384      	movs	r3, #132	; 0x84
801000b8:	f2c0 230e 	movt	r3, #526	; 0x20e
801000bc:	617b      	str	r3, [r7, #20]
801000be:	2388      	movs	r3, #136	; 0x88
801000c0:	f2c0 230e 	movt	r3, #526	; 0x20e
801000c4:	613b      	str	r3, [r7, #16]
801000c6:	f240 6324 	movw	r3, #1572	; 0x624
801000ca:	f2c0 230e 	movt	r3, #526	; 0x20e
801000ce:	60fb      	str	r3, [r7, #12]
801000d0:	f244 0324 	movw	r3, #16420	; 0x4024
801000d4:	f2c0 230c 	movt	r3, #524	; 0x20c
801000d8:	60bb      	str	r3, [r7, #8]
801000da:	f244 037c 	movw	r3, #16508	; 0x407c
801000de:	f2c0 230c 	movt	r3, #524	; 0x20c
801000e2:	607b      	str	r3, [r7, #4]
801000e4:	68bb      	ldr	r3, [r7, #8]
801000e6:	681b      	ldr	r3, [r3, #0]
801000e8:	f023 027f 	bic.w	r2, r3, #127	; 0x7f
801000ec:	68bb      	ldr	r3, [r7, #8]
801000ee:	601a      	str	r2, [r3, #0]
801000f0:	687b      	ldr	r3, [r7, #4]
801000f2:	681b      	ldr	r3, [r3, #0]
801000f4:	f043 7240 	orr.w	r2, r3, #50331648	; 0x3000000
801000f8:	687b      	ldr	r3, [r7, #4]
801000fa:	601a      	str	r2, [r3, #0]
801000fc:	697b      	ldr	r3, [r7, #20]
801000fe:	681b      	ldr	r3, [r3, #0]
80100100:	f023 020f 	bic.w	r2, r3, #15
80100104:	697b      	ldr	r3, [r7, #20]
80100106:	601a      	str	r2, [r3, #0]
80100108:	693b      	ldr	r3, [r7, #16]
8010010a:	681b      	ldr	r3, [r3, #0]
8010010c:	f023 020f 	bic.w	r2, r3, #15
80100110:	693b      	ldr	r3, [r7, #16]
80100112:	601a      	str	r2, [r3, #0]
80100114:	68fb      	ldr	r3, [r7, #12]
80100116:	681b      	ldr	r3, [r3, #0]
80100118:	f043 0203 	orr.w	r2, r3, #3
8010011c:	68fb      	ldr	r3, [r7, #12]
8010011e:	601a      	str	r2, [r3, #0]
80100120:	2300      	movs	r3, #0
80100122:	f2c0 2302 	movt	r3, #514	; 0x202
80100126:	2200      	movs	r2, #0
80100128:	f2c0 2202 	movt	r2, #514	; 0x202
8010012c:	f8d2 2090 	ldr.w	r2, [r2, #144]	; 0x90
80100130:	f442 7220 	orr.w	r2, r2, #640	; 0x280
80100134:	f8c3 2090 	str.w	r2, [r3, #144]	; 0x90
80100138:	2300      	movs	r3, #0
8010013a:	f2c0 2302 	movt	r3, #514	; 0x202
8010013e:	220f      	movs	r2, #15
80100140:	f8c3 20a4 	str.w	r2, [r3, #164]	; 0xa4
80100144:	2300      	movs	r3, #0
80100146:	f2c0 2302 	movt	r3, #514	; 0x202
8010014a:	f240 22b5 	movw	r2, #693	; 0x2b5
8010014e:	f8c3 20a8 	str.w	r2, [r3, #168]	; 0xa8
80100152:	2300      	movs	r3, #0
80100154:	f2c0 2302 	movt	r3, #514	; 0x202
80100158:	2200      	movs	r2, #0
8010015a:	f2c0 2202 	movt	r2, #514	; 0x202
8010015e:	f8d2 2084 	ldr.w	r2, [r2, #132]	; 0x84
80100162:	f042 0226 	orr.w	r2, r2, #38	; 0x26
80100166:	f8c3 2084 	str.w	r2, [r3, #132]	; 0x84
8010016a:	2300      	movs	r3, #0
8010016c:	f2c0 2302 	movt	r3, #514	; 0x202
80100170:	2200      	movs	r2, #0
80100172:	f2c0 2202 	movt	r2, #514	; 0x202
80100176:	f8d2 2088 	ldr.w	r2, [r2, #136]	; 0x88
8010017a:	f042 0204 	orr.w	r2, r2, #4
8010017e:	f8c3 2088 	str.w	r2, [r3, #136]	; 0x88
80100182:	2300      	movs	r3, #0
80100184:	f2c0 2302 	movt	r3, #514	; 0x202
80100188:	2200      	movs	r2, #0
8010018a:	f2c0 2202 	movt	r2, #514	; 0x202
8010018e:	f8d2 2080 	ldr.w	r2, [r2, #128]	; 0x80
80100192:	f042 0201 	orr.w	r2, r2, #1
80100196:	f8c3 2080 	str.w	r2, [r3, #128]	; 0x80
8010019a:	bf00      	nop
8010019c:	371c      	adds	r7, #28
8010019e:	46bd      	mov	sp, r7
801001a0:	f85d 7b04 	ldr.w	r7, [sp], #4
801001a4:	4770      	bx	lr

801001a6 <UART_SendByte>:
801001a6:	b480      	push	{r7}
801001a8:	b083      	sub	sp, #12
801001aa:	af00      	add	r7, sp, #0
801001ac:	6078      	str	r0, [r7, #4]
801001ae:	460b      	mov	r3, r1
801001b0:	70fb      	strb	r3, [r7, #3]
801001b2:	bf00      	nop
801001b4:	687b      	ldr	r3, [r7, #4]
801001b6:	f8d3 3098 	ldr.w	r3, [r3, #152]	; 0x98
801001ba:	78fa      	ldrb	r2, [r7, #3]
801001bc:	687b      	ldr	r3, [r7, #4]
801001be:	641a      	str	r2, [r3, #64]	; 0x40
801001c0:	bf00      	nop
801001c2:	370c      	adds	r7, #12
801001c4:	46bd      	mov	sp, r7
801001c6:	f85d 7b04 	ldr.w	r7, [sp], #4
801001ca:	4770      	bx	lr

801001cc <UART_GetByte>:
801001cc:	b480      	push	{r7}
801001ce:	b083      	sub	sp, #12
801001d0:	af00      	add	r7, sp, #0
801001d2:	6078      	str	r0, [r7, #4]
801001d4:	bf00      	nop
801001d6:	687b      	ldr	r3, [r7, #4]
801001d8:	f8d3 3098 	ldr.w	r3, [r3, #152]	; 0x98
801001dc:	f003 0301 	and.w	r3, r3, #1
801001e0:	2b00      	cmp	r3, #0
801001e2:	d0f8      	beq.n	801001d6 <UART_GetByte+0xa>
801001e4:	2300      	movs	r3, #0
801001e6:	f2c0 2302 	movt	r3, #514	; 0x202
801001ea:	681b      	ldr	r3, [r3, #0]
801001ec:	4618      	mov	r0, r3
801001ee:	370c      	adds	r7, #12
801001f0:	46bd      	mov	sp, r7
801001f2:	f85d 7b04 	ldr.w	r7, [sp], #4
801001f6:	4770      	bx	lr

801001f8 <main>:
801001f8:	b580      	push	{r7, lr}
801001fa:	b082      	sub	sp, #8
801001fc:	af00      	add	r7, sp, #0
801001fe:	f7ff ff05 	bl	8010000c <LED_Init>
80100202:	f7ff ff55 	bl	801000b0 <UART_Init>
80100206:	2000      	movs	r0, #0
80100208:	f2c0 2002 	movt	r0, #514	; 0x202
8010020c:	f7ff ffde 	bl	801001cc <UART_GetByte>
80100210:	4603      	mov	r3, r0
80100212:	71fb      	strb	r3, [r7, #7]
80100214:	79fb      	ldrb	r3, [r7, #7]
80100216:	2b41      	cmp	r3, #65	; 0x41
80100218:	d104      	bne.n	80100224 <main+0x2c>
8010021a:	2101      	movs	r1, #1
8010021c:	2000      	movs	r0, #0
8010021e:	f7ff ff15 	bl	8010004c <LED_Control>
80100222:	e7f0      	b.n	80100206 <main+0xe>
80100224:	79fb      	ldrb	r3, [r7, #7]
80100226:	2b42      	cmp	r3, #66	; 0x42
80100228:	d104      	bne.n	80100234 <main+0x3c>
8010022a:	2100      	movs	r1, #0
8010022c:	2000      	movs	r0, #0
8010022e:	f7ff ff0d 	bl	8010004c <LED_Control>
80100232:	e7e8      	b.n	80100206 <main+0xe>
80100234:	79fb      	ldrb	r3, [r7, #7]
80100236:	3301      	adds	r3, #1
80100238:	b2db      	uxtb	r3, r3
8010023a:	4619      	mov	r1, r3
8010023c:	2000      	movs	r0, #0
8010023e:	f2c0 2002 	movt	r0, #514	; 0x202
80100242:	f7ff ffb0 	bl	801001a6 <UART_SendByte>
80100246:	e7de      	b.n	80100206 <main+0xe>

